:100000000C945D000C9485000C9485000C94850084
:100010000C9485000C9485000C9485000C9485004C
:100020000C9485000C9485000C9485000C946E0350
:100030000C9485000C9485000C9485000C9485002C
:100040000C9424030C9485000C94F2020C94CC02C2
:100050000C9485000C9485000C9485000C9485000C
:100060000C9485000C9485000000000024002700FB
:100070002A0000000000250028002B0004040404CE
:100080000404040402020202020203030303030342
:10009000010204081020408001020408102001021F
:1000A00004081020000000080002010000030407FB
:1000B0000000000000000000C60611241FBECFEFA4
:1000C000D8E0DEBFCDBF11E0A0E0B1E0EEE4F2E1A8
:1000D00002C005900D92AE3EB107D9F722E0AEEE18
:1000E000B1E001C01D92A43AB207E1F710E0CDE5FE
:1000F000D0E004C02197FE010E941F09CC35D10732
:10010000C9F70E940F040C9425090C940000EBEA37
:10011000F0E02491E7E9F0E09491E3E8F0E0E49185
:10012000EE23C9F0222339F0233001F1A8F4213065
:1001300019F1223029F1F0E0EE0FFF1FEE58FF4FCA
:10014000A591B4912FB7F894EC91811126C09095A8
:100150009E239C932FBF08952730A9F02830C9F023
:10016000243049F7209180002F7D03C0209180002A
:100170002F7720938000DFCF24B52F7724BDDBCFEE
:1001800024B52F7DFBCF2091B0002F772093B000B6
:10019000D2CF2091B0002F7DF9CF9E2BDACFAF9236
:1001A000BF92CF92DF92EF92FF920F931F93CF9364
:1001B000DF936C017B018B01040F151FEB015E01C6
:1001C000AE18BF08C017D10759F06991D601ED915B
:1001D000FC910190F081E02DC6010995892B79F7FA
:1001E000C501DF91CF911F910F91FF90EF90DF90AC
:1001F000CF90BF90AF900895FC01538D448D252F73
:1002000030E0842F90E0821B930B541710F0CF96B0
:10021000089501970895FC01918D828D981761F0E2
:10022000A28DAE0FBF2FB11D5D968C91928D9F5FF9
:100230009F73928F90E008958FEF9FEF0895FC01D8
:10024000918D828D981731F0828DE80FF11D858D8B
:1002500090E008958FEF9FEF0895FC01918D228D1E
:10026000892F90E0805C9F4F821B91098F739927A3
:10027000089587E092E00E942D0121E0892B09F486
:1002800020E0822F089580E090E0892B29F00E94E1
:10029000390181110C9400000895FC01A48DA80F70
:1002A000B92FB11DA35ABF4F2C91848D90E00196B8
:1002B0008F739927848FA689B7892C93A089B189D8
:1002C0008C91837080648C93938D848D981306C079
:1002D0000288F389E02D80818F7D80830895EF92DD
:1002E000FF920F931F93CF93DF93EC0181E0888FF0
:1002F0009B8D8C8D98131AC0E889F989808185FFC0
:1003000015C09FB7F894EE89FF896083E889F98961
:1003100080818370806480839FBF81E090E0DF9163
:10032000CF911F910F91FF90EF900895F62E0B8DB6
:1003300010E00F5F1F4F0F731127E02E8C8D8E1171
:100340000CC00FB607FCFACFE889F989808185FFD8
:10035000F5CFCE010E944D01F1CFEB8DEC0FFD2FBB
:10036000F11DE35AFF4FF0829FB7F8940B8FEA8993
:10037000FB8980818062CFCFCF93DF93EC01888DA2
:100380008823B9F0AA89BB89E889F9898C9185FD10
:1003900003C0808186FD0DC00FB607FCF7CF8C919E
:1003A00085FFF2CF808185FFEDCFCE010E944D0108
:1003B000E9CFDF91CF9108953FB7F8948091F30191
:1003C0009091F401A091F501B091F60126B5A89B9A
:1003D00005C02F3F19F00196A11DB11D3FBFBA2FD7
:1003E000A92F982F8827BC01CD01620F711D811D97
:1003F000911D42E0660F771F881F991F4A95D1F71C
:1004000008958F929F92AF92BF92CF92DF92EF9218
:10041000FF926B017C010E94DC014B015C01C11465
:10042000D104E104F104B9F00E94DC0168197909F2
:100430008A099B09683E73408105910580F321E09C
:10044000C21AD108E108F10888EE880E83E0981EF0
:10045000A11CB11CE4CFFF90EF90DF90CF90BF9034
:10046000AF909F908F900895009781F4611571056A
:1004700059F06130710541F44115510509F14130E0
:10048000510511F443E050E0CA0108950197E1F7E6
:100490006115710549F441155105A9F04130510527
:1004A00099F745E050E0F0CF6130710569F74115EB
:1004B000510561F04130510539F747E050E0E4CF94
:1004C00042E050E0E1CF44E050E0DECF46E050E0D3
:1004D000DBCFFC0101900020E9F73197AF01481B09
:1004E000590BBC0187E092E00C94CF008F929F9251
:1004F000AF92BF920F931F93CF93DF93CDB7DEB729
:10050000A1970FB6F894DEBF0FBECDBF19A242303F
:1005100008F44AE08E010F5D1F4F842E912CB12C00
:10052000A12CA50194010E941D07E62FB901CA0163
:10053000EA30F4F4E05DD801EE938D01232B242BF7
:10054000252B79F790E080E0109719F0CD010E94FB
:100550006902A1960FB6F894DEBF0FBECDBFDF9142
:10056000CF911F910F91BF90AF909F908F90089562
:10057000E95CE1CFCF93DF93D0E0C0E0009719F0C2
:100580000E946902EC0184E791E00E9469028C0FED
:100590009D1FDF91CF9108951F920F920FB60F927A
:1005A00011242F933F934F935F936F937F938F9378
:1005B0009F93AF93BF93EF93FF9387E092E00E94E6
:1005C0004D01FF91EF91BF91AF919F918F917F91DD
:1005D0006F915F914F913F912F910F900FBE0F90B0
:1005E0001F9018951F920F920FB60F9211242F9300
:1005F0008F939F93EF93FF93E0911702F09118026E
:100600008081E0911D02F0911E0282FD1BC090814D
:10061000809120028F5F8F7320912102821741F019
:10062000E0912002F0E0E95FFD4F958F809320027A
:10063000FF91EF919F918F912F910F900FBE0F908F
:100640001F9018958081F4CF1F920F920FB60F92D2
:1006500011242F933F938F939F93AF93BF938091D8
:10066000EF019091F001A091F101B091F201309170
:10067000EE0123E0230F2D3758F50196A11DB11D82
:100680002093EE018093EF019093F001A093F1018C
:10069000B093F2018091F3019091F401A091F501E2
:1006A000B091F6010196A11DB11D8093F3019093C5
:1006B000F401A093F501B093F601BF91AF919F9122
:1006C0008F913F912F910F900FBE0F901F90189513
:1006D00026E8230F0296A11DB11DD2CF1F920F92C3
:1006E0000FB60F9211244F935F936F937F938F9365
:1006F0009F93AF93BF938091040190910501A091C6
:100700000601B0910701892B8A2B8B2B99F08091E0
:10071000040190910501A0910601B0910701019794
:10072000A109B1098093040190930501A0930601EA
:10073000B09307018091000190910101A091020105
:10074000B0910301892B8A2B8B2B99F080910001AA
:1007500090910101A0910201B09103010197A109BB
:10076000B1098093000190930101A0930201B0931D
:1007700003014091040150910501609106017091BF
:10078000070181E090E0452B462B472B11F090E0CC
:1007900080E09093FE018093FD0140910001509113
:1007A0000101609102017091030181E090E0452B0D
:1007B000462B472B11F090E080E09093000280934D
:1007C000FF018091FB019091FC010097C9F480E149
:1007D00097E2A0E0B0E08093040190930501A0931C
:1007E0000601B0930701BF91AF919F918F917F91C7
:1007F0006F915F914F910F900FBE0F901F901895C2
:10080000019789F788E893E1A0E0B0E080930001C8
:1008100090930101A0930201B0930301E4CF789477
:1008200084B5826084BD84B5816084BD85B58260F5
:1008300085BD85B5816085BD80916E0081608093A6
:100840006E0010928100809181008260809381000F
:10085000809181008160809381008091800081601F
:10086000809380008091B10084608093B10080917A
:10087000B00081608093B00080917A0084608093A2
:100880007A0080917A00826080937A0080917A0069
:10089000816080937A0080917A00806880937A00EA
:1008A0001092C100E0911702F091180282E080835B
:1008B000E0911302F09114021082E0911502F09180
:1008C00016028FEC808310921F02E0911B02F091C0
:1008D0001C0286E08083E0911902F0911A02808167
:1008E00080618083E0911902F0911A028081886012
:1008F0008083E0911902F0911A02808180688083E0
:10090000E0911902F0911A0280818F7D8083EEE9D7
:10091000F0E02491EAE8F0E084918823C1F090E0CF
:10092000880F991FFC01E859FF4FC591D491FC0134
:10093000EE58FF4FA591B4919FB7F8948881E22FAC
:10094000E0958E2388838C91E823EC939FBFE7E9A1
:10095000F0E02491E3E8F0E08491882399F090E0BE
:10096000880F991FFC01E859FF4FA591B491FC0134
:10097000EE58FF4F859194918FB7F894EC91E22B4C
:10098000EC938FBF109280001092810080918100C3
:1009900088608093810080918100826080938100D3
:1009A0008FEC97E0909389008093880010928500E7
:1009B00010928400B19A80916F00826080936F00E2
:1009C00044244A9423E0522E612C712C3EE1332EB4
:1009D0004FE0242E20E420937C0080917A008064F4
:1009E00080937A0080917A0086FDFCCF8091780018
:1009F00060917900762F682F64517109072E000CE1
:100A0000880B990B0E94F8072CE53FE842E450E47C
:100A10000E94AD080E94C0079B01AC01A5EAB0E0AE
:100A20000E941207A30192010E94F306CA01B901B4
:100A300068527109810991090E94F8076B017C01D4
:100A4000C0920302D0920402E0920502F0920602E4
:100A500020E030E040EF51E40E94A80818160CF0A6
:100A6000E6C087E791E00E94BA02C1E0D0E0D093EF
:100A70000202C0930102A090FF01B0900002C0905A
:100A8000FD01D090FE01E090F701F090F8013E9C4E
:100A9000F0013F9CF00D1124E85FFE4F00811181B1
:100AA000848595852AE0289FB001299F700D112427
:100AB00090E080E00E940102A501B601CE010E94F3
:100AC00034022E9CF0012F9CF00D1124E80FF91F29
:100AD000EE0FFF1FEA5EFE4F808191819093F80137
:100AE0008093F7011093FC010093FB010130110585
:100AF00009F0B2C081E00E9487001093FA010093D0
:100B0000F90186E991E00E94BA02C0900302D090F8
:100B10000402E0900502F0900602A7019601C701C9
:100B2000B6010E941A09882309F49EC084EA91E064
:100B30000E94690284E791E00E94690280EB91E0E3
:100B40000E94BA02C090F901D090FA010D2C000C5D
:100B5000EE08FF084AE0C701B601F7FE0DC06DE2DE
:100B600087E092E00E946F0166277727CB016C191E
:100B70007D098E099F094AE00E94760284E791E090
:100B80000E9469024091FF01509100026091FD01B5
:100B90007091FE0180910102909102020E94340244
:100BA000EC0189EC91E00E9469022091FB013091F7
:100BB000FC01329EC001339E900D1124865F9E4F32
:100BC0000E94BA028DED91E00E9469022091FB0122
:100BD0003091FC01229EC001239E900D1124C80F6C
:100BE000D91FCC0FDD1FCA5EDE4F28813981329EAE
:100BF000C001339E900D1124865F9E4F0E94BA0261
:100C000084E791E00E94690268EE73E080E090E082
:100C10000E94010280E090E0892B09F4DBCE0E9463
:100C20003901882309F4D6CE0E940000D3CE20E0FB
:100C300030E048ED51E4C701B6010E94BB07C09106
:100C40000102D091020287FF12CF86E891E00E9454
:100C5000BA02D0E0C0E00BCF80E00E948700109283
:100C6000FA011092F9014DCF46015701E894B7F807
:100C70002FEF3FEF4FE75FE7C501B4010E941A096C
:100C800081110DC02FEF3FEF4FE75FE7C501B401C2
:100C90000E94BB0718161CF488EA91E049CF2FEF99
:100CA0003FEF4FE75FE4C701B6010E94A80818169E
:100CB0001CF48CEA91E03CCF2FEF3FEF4FE75FEC65
:100CC000C701B6010E94BB0787FDF3CF20E030E0EB
:100CD000A901C701B6010E94BB0787FF09C06DE2E9
:100CE00087E092E00E946F01F7FAF094F7F8F09431
:100CF0002AE037ED43EA5BE3C701B6010E944F07E4
:100D00004B015C010E94C7076B017C010E94F60742
:100D10009B01AC01C501B4010E944E074B015C016F
:100D20004AE0C701B6010E9476026EE287E092E0D7
:100D30000E946F0120E030E040E251E4C501B401BF
:100D40000E94AD084B015C010E94C7076B01F12CAA
:100D5000E12C4AE0C701B6010E947602C701B60144
:100D60000E94F6079B01AC01C501B4010E944E0729
:100D700020E030E040E251E40E94AD080E94C70745
:100D800090E080E04AE00E947602D4CEE7E0F2E014
:100D90001382128288EE93E0A0E0B0E08483958312
:100DA000A683B78386E691E09183808385EC90E00B
:100DB0009587848784EC90E09787868780EC90E025
:100DC000918B808B81EC90E0938B828B82EC90E016
:100DD000958B848B86EC90E0978B868B118E128E90
:100DE000138E148E0895052E97FB1EF400940E9416
:100DF0000A0757FD07D00E941D0707FC03D04EF4D9
:100E00000C940A0750954095309521953F4F4F4FD0
:100E10005F4F089590958095709561957F4F8F4FA6
:100E20009F4F08950E943F07A59F900DB49F900D7E
:100E3000A49F800D911D11240895A1E21A2EAA1BD2
:100E4000BB1BFD010DC0AA1FBB1FEE1FFF1FA2177A
:100E5000B307E407F50720F0A21BB30BE40BF50B77
:100E6000661F771F881F991F1A9469F76095709500
:100E7000809590959B01AC01BD01CF010895A29F83
:100E8000B001B39FC001A39F700D811D1124911D5E
:100E9000B29F700D811D1124911D08955058BB27DC
:100EA000AA270E9466070C946E080E94600838F01A
:100EB0000E94670820F039F49F3F19F426F40C943F
:100EC0005D080EF4E095E7FB0C945708E92F0E94AB
:100ED0007F0858F3BA17620773078407950720F055
:100EE00079F4A6F50C94A1080EF4E0950B2EBA2F18
:100EF000A02D0B01B90190010C01CA01A001112420
:100F0000FF27591B99F0593F50F4503E68F11A16CB
:100F1000F040A22F232F342F4427585FF3CF46955C
:100F200037952795A795F0405395C9F77EF41F167E
:100F3000BA0B620B730B840BBAF09150A1F0FF0F48
:100F4000BB1F661F771F881FC2F70EC0BA0F621F34
:100F5000731F841F48F4879577956795B795F79524
:100F60009E3F08F0B0CF9395880F08F09927EE0FB9
:100F70009795879508950E94330808F481E00895B5
:100F80000E94C7076894B1110C94A20808950E94AA
:100F9000870888F09F5798F0B92F9927B751B0F07C
:100FA000E1F0660F771F881F991F1AF0BA95C9F7ED
:100FB00014C0B13091F00E94A108B1E008950C94E2
:100FC000A108672F782F8827B85F39F0B93FCCF395
:100FD000869577956795B395D9F73EF4909580956A
:100FE000709561957F4F8F4F9F4F0895E89409C08A
:100FF00097FB3EF490958095709561957F4F8F4F4C
:101000009F4F9923A9F0F92F96E9BB279395F69561
:10101000879577956795B795F111F8CFFAF4BB0FDF
:1010200011F460FF1BC06F5F7F4F8F4F9F4F16C043
:10103000882311F096E911C0772321F09EE8872FCD
:10104000762F05C0662371F096E8862F70E060E089
:101050002AF09A95660F771F881FDAF7880F969502
:10106000879597F90895990F0008550FAA0BE0E8A6
:10107000FEEF16161706E807F907C0F0121613065A
:10108000E407F50798F0621B730B840B950B39F49A
:101090000A2661F0232B242B252B21F408950A2600
:1010A00009F4A140A6958FEF811D811D089597F940
:1010B0009F6780E870E060E008959FEF80EC0895FE
:1010C00000240A9416161706180609060895002427
:1010D0000A9412161306140605060895092E0394A1
:1010E000000C11F4882352F0BB0F40F4BF2B11F415
:1010F00060FF04C06F5F7F4F8F4F9F4F089557FD74
:101100009058440F551F59F05F3F71F04795880F75
:1011100097FB991F61F09F3F79F08795089512160C
:1011200013061406551FF2CF4695F1DF08C01616B8
:1011300017061806991FF1CF869571056105089469
:101140000895E894BB2766277727CB0197F9089580
:101150000E94330808F48FEF08950E94C0080C9491
:101160006E080E94600838F00E94670820F09523FE
:1011700011F00C9457080C945D0811240C94A208EB
:101180000E947F0870F3959FC1F3950F50E0551FA3
:10119000629FF001729FBB27F00DB11D639FAA27CC
:1011A000F00DB11DAA1F649F6627B00DA11D661F1B
:1011B000829F2227B00DA11D621F739FB00DA11D3C
:1011C000621F839FA00D611D221F749F3327A00DF6
:1011D000611D231F849F600D211D822F762F6A2F92
:1011E00011249F5750409AF0F1F088234AF0EE0FF7
:1011F000FF1FBB1F661F771F881F91505040A9F724
:101200009E3F510580F00C9457080C94A2085F3F54
:10121000E4F3983ED4F3869577956795B795F7955F
:10122000E7959F5FC1F7FE2B880F911D96958795D7
:1012300097F908950E943308880B990B0895EE0FD3
:0E124000FF1F0590F491E02D0994F894FFCF64
:10124E008813000010270000000052454144590049
:10125E00000000000A000000000000000000010075
:10126E0001000100010001005045524D495400009B
:10127E0000000A000200020002000200010001004C
:10128E0002000200020044454E590000000000001A
:10129E000A0002000000020000000200000002002E
:1012AE000000000000006F01CF00FC00BC012D010A
:1012BE000B011F010D0A0052656C61792074757265
:1012CE006E73206F6E0052656C6179207475726E4C
:1012DE0073206F66660054656D7065726174757209
:1012EE00653A20006E616E00696E66006F7666006C
:1012FE0043757272656E74207374617465206F66C7
:10130E002072656C61793A200046534D20637572E8
:10131E0072656E742073746174653A200046534D85
:0E132E00206E6578742073746174653A200037
:107E0000112484B714BE81FFF0D085E080938100F7
:107E100082E08093C00088E18093C10086E0809377
:107E2000C20080E18093C4008EE0C9D0259A86E02C
:107E300020E33CEF91E0309385002093840096BBD3
:107E4000B09BFECF1D9AA8958150A9F7CC24DD24C4
:107E500088248394B5E0AB2EA1E19A2EF3E0BF2EE7
:107E6000A2D0813461F49FD0082FAFD0023811F036
:107E7000013811F484E001C083E08DD089C08234E0
:107E800011F484E103C0853419F485E0A6D080C0E4
:107E9000853579F488D0E82EFF2485D0082F10E0AE
:107EA000102F00270E291F29000F111F8ED06801E7
:107EB0006FC0863521F484E090D080E0DECF843638
:107EC00009F040C070D06FD0082F6DD080E0C81688
:107ED00080E7D80618F4F601B7BEE895C0E0D1E017
:107EE00062D089930C17E1F7F0E0CF16F0E7DF06D8
:107EF00018F0F601B7BEE89568D007B600FCFDCFD4
:107F0000A601A0E0B1E02C9130E011968C91119780
:107F100090E0982F8827822B932B1296FA010C0160
:107F200087BEE89511244E5F5F4FF1E0A038BF0790
:107F300051F7F601A7BEE89507B600FCFDCF97BE46
:107F4000E89526C08437B1F42ED02DD0F82E2BD052
:107F50003CD0F601EF2C8F010F5F1F4F84911BD097
:107F6000EA94F801C1F70894C11CD11CFA94CF0C13
:107F7000D11C0EC0853739F428D08EE10CD085E9AC
:107F80000AD08FE07ACF813511F488E018D01DD067
:107F900080E101D065CF982F8091C00085FFFCCF94
:107FA0009093C60008958091C00087FFFCCF809118
:107FB000C00084FD01C0A8958091C6000895E0E648
:107FC000F0E098E1908380830895EDDF803219F02E
:107FD00088E0F5DFFFCF84E1DECF1F93182FE3DFCA
:107FE0001150E9F7F2DF1F91089580E0E8DFEE27F6
:047FF000FF270994CA
:027FFE00040479
:0400000300007E007B
:00000001FF
