:100000000C945D000C9485000C9485000C94850084
:100010000C9485000C9485000C9485000C9485004C
:100020000C9485000C9485000C9485000C9485003C
:100030000C9485000C9485000C9485000C9485002C
:100040000C9408030C9485000C9478030C945203D0
:100050000C9485000C9485000C9485000C9485000C
:100060000C9485000C94850000000008000201003B
:100070000003040700000000000000000000000072
:10008000250028002B0000000000240027002A0083
:10009000040404040404040402020202020203032E
:1000A0000303030301020408102040800102040836
:1000B0001020010204081020820411241FBECFEF7B
:1000C000D8E0DEBFCDBF11E0A0E0B1E0E2EBF9E0A7
:1000D00002C005900D92AA3BB107D9F722E0AAEB26
:1000E000B1E001C01D92A236B207E1F710E0CDE504
:1000F000D0E004C02197FE010E94D104CC35D10785
:10010000C9F70E94AA030C94D7040C94000090E055
:10011000FC01EC55FF4F249180579F4FFC018491C7
:10012000882399F090E0880F991FFC01EA57FF4F50
:10013000A591B491FC01E458FF4F859194918FB73C
:10014000F894EC91E22BEC938FBF0895AF92BF929D
:10015000CF92DF92EF92FF920F931F93CF93DF9393
:100160006C017B018B01040F151FEB015E01AE18C2
:10017000BF08C017D10759F06991D601ED91FC91E4
:100180000190F081E02DC6010995892B79F7C50111
:10019000DF91CF911F910F91FF90EF90DF90CF9063
:1001A000BF90AF900895FC01538D448D252F30E012
:1001B000842F90E0821B930B541710F0CF96089574
:1001C00001970895FC01918D828D981761F0A28DA1
:1001D000AE0FBF2FB11D5D968C91928D9F5F9F7367
:1001E000928F90E008958FEF9FEF0895FC01918D1D
:1001F000828D981731F0828DE80FF11D858D90E08A
:1002000008958FEF9FEF0895FC01918D228D892F26
:1002100090E0805C9F4F821B91098F73992708950E
:1002200085EC91E00E94040121E0892B09F420E093
:10023000822F089580E090E0892B29F00E94100120
:1002400081110C9400000895FC01A48DA80FB92F12
:10025000B11DA35ABF4F2C91848D90E001968F73EE
:100260009927848FA689B7892C93A089B1898C910D
:10027000837080648C93938D848D981306C002885C
:10028000F389E02D80818F7D80830895EF92FF9226
:100290000F931F93CF93DF93EC0181E0888F9B8DA9
:1002A0008C8D98131AC0E889F989808185FF15C063
:1002B0009FB7F894EE89FF896083E889F989808186
:1002C0008370806480839FBF81E090E0DF91CF9155
:1002D0001F910F91FF90EF900895F62E0B8D10E077
:1002E0000F5F1F4F0F731127E02E8C8D8E110CC0E6
:1002F0000FB607FCFACFE889F989808185FFF5CF31
:10030000CE010E942401F1CFEB8DEC0FFD2FF11DEA
:10031000E35AFF4FF0829FB7F8940B8FEA89FB896D
:1003200080818062CFCFCF93DF93EC01888D8823CB
:10033000B9F0AA89BB89E889F9898C9185FD03C048
:10034000808186FD0DC00FB607FCF7CF8C9185FF2D
:10035000F2CF808185FFEDCFCE010E942401E9CF4D
:10036000DF91CF91089590E0FC01E859FF4F24916F
:10037000FC01EC55FF4F3491FC01E057FF4FE49135
:10038000EE23C9F0222339F0233001F1A8F4213003
:1003900019F1223029F1F0E0EE0FFF1FE458FF4F72
:1003A000A591B4918FB7F894EC91611126C0309566
:1003B0003E233C938FBF08952730A9F02830C9F021
:1003C000243049F7809180008F7D03C080918000A8
:1003D0008F7780938000DFCF84B58F7784BDDBCFAC
:1003E00084B58F7DFBCF8091B0008F778093B00074
:1003F000D2CF8091B0008F7DF9CF3E2BDACF0F9313
:100400001F93CF93DF9321E030E0181619063CF0DC
:10041000009711F430E020E0319521953109289FB3
:100420008001299F100D389F100D1124902F812FCE
:1004300017FF02C090E080E0C92FD82FC536D10544
:1004400014F0C4E6D0E061E021303105B1F060E0A5
:100450002F3F3F4F91F48CE00E94B30161E08DE0AB
:100460000E94B3018BE00E9487001016110654F021
:1004700060E08BE00E94B30128C08CE00E94B301D1
:1004800060E0EDCFE3E7F0E0E491E33039F148F4E8
:10049000E130B9F0E23061F784B5806284BDC8BD57
:1004A00014C0E73029F1E83059F1E43009F78091C0
:1004B0008000806280938000D0938B00C0938A007C
:1004C00004C084B5806884BDC7BDD093BB01C09310
:1004D000BA01DF91CF911F910F9108958091800013
:1004E000806880938000D0938900C0938800EDCF0E
:1004F0008091B00080688093B000C093B300E5CFD6
:100500008091B00080628093B000C093B400DDCFD2
:10051000FC0101900020E9F73197AF01481B590B0E
:10052000BC0185EC91E00C94A6008F929F92AF9253
:10053000BF920F931F93CF93DF93CDB7DEB7A197F1
:100540000FB6F894DEBF0FBECDBF19A2423008F43B
:100550004AE08E010F5D1F4F842E912CB12CA12CEF
:10056000A50194010E94AF04E62FB901CA01EA3047
:10057000F4F4E05DD801EE938D01232B242B252B81
:1005800079F790E080E0109719F0CD010E94880281
:10059000A1960FB6F894DEBF0FBECDBFDF91CF910D
:1005A0001F910F91BF90AF909F908F900895E95C3D
:1005B000E1CFCF92DF92EF92FF92CF93DF936B0167
:1005C0007C016DE285EC91E00E944601EC0166271A
:1005D0007727CB016C197D098E099F094AE00E949B
:1005E00095028C0F9D1FDF91CF91FF90EF90DF90D0
:1005F000CF900895CF93DF930E948802EC0182E1AF
:1006000091E00E9488028C0F9D1FDF91CF91089589
:100610001F920F920FB60F9211242F933F938F9337
:100620009F93AF93BF938091C1019091C201A0911C
:10063000C301B091C4013091C00123E0230F2D37D5
:1006400058F50196A11DB11D2093C0018093C101F1
:100650009093C201A093C301B093C4018091BC01E7
:100660009091BD01A091BE01B091BF010196A11D65
:10067000B11D8093BC019093BD01A093BE01B093C6
:10068000BF01BF91AF919F918F913F912F910F909B
:100690000FBE0F901F90189526E8230F0296A11DFC
:1006A000B11DD2CF1F920F920FB60F9211242F932C
:1006B0003F934F935F936F937F938F939F93AF93EA
:1006C000BF93EF93FF9385EC91E00E942401FF918B
:1006D000EF91BF91AF919F918F917F916F915F91BA
:1006E0004F913F912F910F900FBE0F901F90189533
:1006F0001F920F920FB60F9211242F938F939F93F7
:10070000EF93FF93E091D501F091D6018081E091C4
:10071000DB01F091DC0182FD1BC090818091DE0144
:100720008F5F8F732091DF01821741F0E091DE012E
:10073000F0E0EB53FE4F958F8093DE01FF91EF9138
:100740009F918F912F910F900FBE0F901F90189532
:100750008081F4CF789484B5826084BD84B5816053
:1007600084BD85B5826085BD85B5816085BD80917C
:100770006E00816080936E001092810080918100F4
:1007800082608093810080918100816080938100EC
:10079000809180008160809380008091B1008460AE
:1007A0008093B1008091B00081608093B00080910F
:1007B0007A00846080937A0080917A0082608093CE
:1007C0007A0080917A00816080937A0080917A002B
:1007D000806880937A001092C100E091D501F09179
:1007E000D60182E08083E091D101F091D2011082A4
:1007F000E091D301F091D4018FEC80831092DD0160
:10080000E091D901F091DA0186E08083E091D7018F
:10081000F091D801808180618083E091D701F091CF
:10082000D801808188608083E091D701F091D80160
:10083000808180688083E091D701F091D801808128
:100840008F7D80838CE00E9487008DE00E9487006E
:100850008BE00E94870090E080E00E94FF0185E12C
:1008600091E00E94FA0280E391E00E94FA028BE597
:1008700091E00E94FA0200E010E085EC91E00E9415
:100880000401892B39F185EC91E00E94E200823667
:1008900059F18636F9F48091BA019091BB014496E2
:1008A0000E94FF01C091BA01D091BB018CE791E099
:1008B0000E948802BE01DD0F880B990B97FF03C0D1
:1008C0000E94D90203C04AE00E94950282E191E0B1
:1008D0000E9488020115110581F20E9410018823EF
:1008E00061F20E940000C9CF8091BA019091BB01D2
:1008F00044970E94FF01C091BA01D091BB018AE9DF
:1009000091E0D6CFE5ECF1E01382128288EE93E01D
:10091000A0E0B0E084839583A683B78384E091E070
:100920009183808385EC90E09587848784EC90E0C8
:100930009787868780EC90E0918B808B81EC90E0AC
:10094000938B828B82EC90E0958B848B86EC90E08D
:10095000978B868B118E128E138E148E0895A1E2C2
:100960001A2EAA1BBB1BFD010DC0AA1FBB1FEE1F29
:10097000FF1FA217B307E407F50720F0A21BB30B74
:10098000E40BF50B661F771F881F991F1A9469F7F0
:1009900060957095809590959B01AC01BD01CF014C
:1009A0000895EE0FFF1F0590F491E02D0994F8943F
:0209B000FFCF77
:1009B200000000004601A600D30093010401E200FA
:1009C200F6000D0A004443204D6F746F72206120BF
:1009D200666F737420636F6E666967757261740007
:1009E200546173746120462070656E747275202D97
:1009F2002D20726F7469726520206D6F746F72752D
:100A02006C20696E61696E74652E00205461737486
:100A12006120442070656E747275202D2D20726FD6
:100A22007469726520696E61706F690053746570D4
:100A320020757020666F72206D6F746F722C206E3D
:100A42006F77206974206973200053746570206485
:100A52006F776E20666F72206D6F746F722C206ECE
:0A0A62006F7720697420697320008B
:00000001FF
